:0A0000003428000000000000002872
:0E000A008312031321088A00200882000800D8
:100018003F3083120313A5000630A6005B30A7000B
:100028004F30A8006630A9006D30AA007D30AB00C3
:100038000730AC007F30AD006F30AE002408253E9D
:0800480084000008F00008002C
:1000500005208A110A128000840AA00A0319A10A45
:08006000F003031D282808002D
:100068006E30831603138F0007309C008F309F007B
:1000780086018312A201A3012308003C031D462820
:1000880022080A3C031C5F282208A4000C207008E0
:1000980086000630FB001330FC00AD30FD00FD0B80
:1000A8005328FC0B5328FB0B532800000000A20A1E
:0A00B8000319A30A40283D28602820
:04400E00EA39430048
:00000001FF
